:100000000C942A000C9447000C9447000C94470071
:100010000C9447000C9447000C9447000C94470044
:100020000C9447000C9447000C9447000C94470034
:100030000C9447000C9447000C9447000C94470024
:100040000C9447000C9447000C9447000C94470014
:100050000C94470011241FBECFE5D8E0DEBFCDBF12
:1000600010E0A0E6B0E0E6EFF1E002C005900D92EE
:10007000A236B107D9F720E0A2E6B0E001C01D9298
:10008000A836B207E1F70E9449000C94F9000C94DD
:1000900000008FEF84BB0E946700FDCF9DEC899F1D
:1000A000912D1124292F269526952695220F322F42
:1000B000330F330F230F821B282F96959695969515
:1000C00030E1939FC0011124822B85BB08953CC071
:1000D000859907C081E0809362008093640010924C
:1000E000670083990FC08091670081110DC081E086
:1000F00090916400911180E08093640081E080938E
:10010000670002C010926700849B03C085E0809363
:100110006000809160008823A9F0909164009111A3
:1001200013C00E944E008091600081508093600057
:100130002FEF81EE94E0215080409040E1F700C025
:10014000000002C00E944E0080916200813009F0E0
:10015000BFCF4AC083990FC08091670081110DC045
:1001600081E090916300911180E08093630081E0D1
:100170008093670002C010926700849B0BC080913F
:100180006600811109C082E08093630081E0809362
:10019000660002C01092660080916300813051F4C5
:1001A000809160008F5F809360000E944E001092EB
:1001B00063000BC0823049F480916000865F8093B9
:1001C00060000E944E001092630085990BC08091E0
:1001D0006500811109C010926400109262001092B3
:1001E000650002C010926500809162008111B2CF5B
:0601F0000895F894FFCF12
:0201F600050002
:00000001FF
