S013000044494F206469706C6F6D612E737265632F
S11300000C946A000C94E4030C940D040C94870083
S11300100C9487000C9487000C945A050C940805E2
S11300200C9431050C94DF040C943D040C94660488
S11300300C9487000C9487000C9487000C94870020
S11300400C9487000C9487000C9487000C94870010
S11300500C94870078027A027C027E02800282027B
S11300608402860288028A028C028E029002920224
S11300709402960298029A029C029E02A002A20294
S1130080A402A602A802AA02AC02AE02B002B20204
S1130090B402B602C402C602C802CA02CC02CE022C
S11300A0D002D202D402D602D802DA02DC02DE0284
S11300B0E002E202E402E602E802EA02EC02EE02F4
S11300C0F002F202F402F602F802FA02FC02FE0264
S11300D00003020311241FBECFE5D8E0DEBFCDBF6D
S11300E010E0A0E6B0E0E2E9FBE002C005900D926A
S11300F0A63BB107D9F720E0A6EBB0E001C01D9202
S1130100AB3CB207E1F70E94B3010C94C7050C9411
S11301103604CF93C82F60E081E00E946B026C2FFD
S1130120661F6627661F86E00E946B02C6FB662771
S113013060F985E00E946B02C5FB662760F984E0E4
S11301400E946B02C4FB662760F983E00E946B0285
S113015061E082E00E946B028FEC97E00197F1F777
S113016000C0000060E082E00E946B028FEC97E028
S11301700197F1F700C00000C3FB662760F986E031
S11301800E946B02C2FB662760F985E00E946B0245
S1130190C1FB662760F984E00E946B026C2F6170DA
S11301A083E00E946B0261E082E00E946B028FECAC
S11301B097E00197F1F700C0000060E082E00E9440
S11301C06B028FEC97E00197F1F700C00000CF912C
S11301D00895CF93C82F61E081E00E946B026C2FD9
S11301E0661F6627661F86E00E946B02C6FB6627B1
S11301F060F985E00E946B02C5FB662760F984E024
S11302000E946B02C4FB662760F983E00E946B02C4
S113021061E082E00E946B028FEC97E00197F1F7B6
S113022000C0000060E082E00E946B028FEC97E067
S11302300197F1F700C00000C3FB662760F986E070
S11302400E946B02C2FB662760F985E00E946B0284
S1130250C1FB662760F984E00E946B026C2F617019
S113026083E00E946B0261E082E00E946B028FECEB
S113027097E00197F1F700C0000060E082E00E947F
S11302806B028FEC97E00197F1F700C00000CF916B
S113029008952FE788E391E0215080409040E1F7F2
S11302A000C0000082E00E94890088E20E94890068
S11302B08CE00E94890081E00E9489008FEC97E025
S11302C00197F1F700C0000086E00C948900CF93F9
S11302D0DF93EC018991882319F00E94E900FACF99
S11302E0DF91CF910895811102C080E803C081306D
S11302F021F480EC860F0C9489000895CF93DF934A
S1130300EA010E947301CE01DF91CF910C94670141
S11303108091B60081110FC086B597B59093BA004D
S11303208093B90081E00E94CB0461E080E10E94E7
S11303306B0281E00FC08091B600813069F460E007
S113034080E10E946B0286B597B59093B8008093C4
S1130350B70082E08093B600089588E891E00E9497
S1130360DA040C94D604CF93DF93CDB7DEB7C45828
S1130370D1090FB6F894DEBF0FBECDBF78940E94AA
S113038004030E94490166E081E00E9455020E9434
S1130390830562E080E00E948F040E94AD0140E684
S11303A050E060E080E00E947E0187E0E6E7F0E054
S11303B0DE01A258BF4F01900D928A95E1F788E0C3
S11303C0EDE7F0E0DE01AA58BF4F01900D928A9547
S11303D0E1F788E0E5E8F0E0DE01A259BF4F0190C3
S11303E00D928A95E1F789E0EDE8F0E0DE01AB5982
S11303F0BF4F01900D928A95E1F7CE0101960E94BC
S11304008D05BE0162587F4FCE0101960E94B00552
S1130410E82EBE016A587F4FCE0101960E94B005B6
S1130420182FBE0162597F4FCE0101960E94B0057C
S1130430F82EBE016B597F4FCE0101960E94B00584
S1130440082FEE2059F061E081E10E946B02AE01B9
S11304504F5F5F4F60E080E00E947E01FF2051F01B
S113046061E085E10E946B0245E650E068E081E0CE
S11304700E947E01002351F060E085E10E946B023E
S11304804DE650E068E080E00E947E01112309F40B
S1130490B4CF60E081E10E946B02AE014F5F5F4F19
S11304A060E081E00E947E01A8CF96B1987F96B962
S11304B096B16770692B66B93D98813041F020F0A0
S11304C0823039F43F9A04C03F983E9802C03F9866
S11304D03E9A379A0895613009F04AC090E080321C
S11304E0910508F090C0FC01E65DFF4F0C94C10536
S11304F0D89A0895D99A0895DA9A0895DB9A0895B6
S1130500DC9A0895DD9A0895DE9A0895DF9A089595
S1130510C09A0895C19A0895C29A0895C39A0895F5
S1130520C49A0895C59A0895C69A0895C79A0895D5
S1130530A89A0895A99A0895AA9A0895AB9A089535
S1130540AC9A0895AD9A0895AE9A0895AF9A089515
S1130550909A0895919A0895929A0895939A089575
S1130560949A0895959A0895969A0895979A089555
S1130570611149C090E08032910508F044C0FC014B
S1130580E65BFF4F0C94C105D8980895D998089557
S1130590DA980895DB980895DC980895DD98089515
S11305A0DE980895DF980895C0980895C198089535
S11305B0C2980895C3980895C4980895C598089555
S11305C0C6980895C7980895A8980895A998089575
S11305D0AA980895AB980895AC980895AD98089595
S11305E0AE980895AF9808959098089591980895B5
S11305F092980895939808959498089595980895D5
S11306009698089597980895E6E9F0E040E081E02F
S113061090E05191342F369536953695242F2770D6
S1130620513009F444C020F0523009F484C0C7C0EA
S1130630323009F1333069F1313071F05AB3BC0111
S113064002C0660F771F2A95E2F79B01352F322BE4
S11306503ABB3BB320953EC057B3BC0102C0660F02
S1130660771F2A95E2F79B01352F322B37BB38B31E
S11306702095232384C054B3BC0102C0660F771FA6
S11306802A95E2F79B01352F322B34BB35B32095E5
S113069040C051B3BC0102C0660F771F2A95E2F730
S11306A09B01352F322B31BB32B3209542C03230FF
S11306B019F1333089F1313079F05AB3BC0102C0F9
S11306C0660F771F2A95E2F79B012095352F322379
S11306D03ABB3BB3232343C057B3BC0102C0660FEC
S11306E0771F2A95E2F79B012095352F322337BBDC
S11306F037B3232327BB63C054B3BC0102C0660FC6
S1130700771F2A95E2F79B012095352F322334BBBE
S113071035B3232325BB53C051B3BC0102C0660FBC
S1130720771F2A95E2F79B012095352F322331BBA1
S113073032B3232343C0323021F1333089F13130D5
S113074081F05AB3BC0102C0660F771F2A95E2F705
S11307509B01362F309535233ABB3BB3232B2BBB60
S11307602EC057B3BC0102C0660F771F2A95E2F76B
S11307709B01362F3095352337BB38B3232B28BB49
S11307801EC054B3BC0102C0660F771F2A95E2F75E
S11307909B01362F3095352334BB35B3232BBACF89
S11307A051B3BC0102C0660F771F2A95E2F79B0183
S11307B0362F3095352331BB32B3232B22BB4F5F09
S11307C0403209F026CF08951F920F920FB60F9270
S11307D011242F933F934F935F936F937F938F9342
S11307E09F93AF93BF93EF93FF93E091BD00F0917C
S11307F0BE00309709F00995FF91EF91BF91AF9139
S11308009F918F917F916F915F914F913F912F9124
S11308100F900FBE0F901F9018951F920F920FB656
S11308200F9211242F933F934F935F936F937F9372
S11308308F939F93AF93BF93EF93FF93E091BB008C
S1130840F091BC00309709F00995FF91EF91BF91A9
S1130850AF919F918F917F916F915F914F913F9154
S11308602F910F900FBE0F901F901895E091BB0031
S1130870F091BC00309709F009951F920F920FB6C2
S11308800F9211242F933F934F935F936F937F9312
S11308908F939F93AF93BF93EF93FF93E091C10026
S11308A0F091C200309709F00995FF91EF91BF9143
S11308B0AF919F918F917F916F915F914F913F91F4
S11308C02F910F900FBE0F901F9018951F920F92AB
S11308D00FB60F9211242F933F934F935F936F930F
S11308E07F938F939F93AF93BF93EF93FF93E09185
S11308F0BF00F091C000309709F00995FF91EF9186
S1130900BF91AF919F918F917F916F915F914F9123
S11309103F912F910F900FBE0F901F90189582302A
S1130920D9F050F4882379F0813071F58FB58E7F3A
S11309308FBD8FB58D7F21C08330D1F0843021F5F8
S11309408FB5816017C08FB58E7F8FBD8FB58D7FBA
S11309508FBD8EB5877F08C08FB58E7F8FBD8FB555
S11309608D7F8FBD8EB588608EBD8EB58F7E0BC09A
S11309708FB58E7F8FBD8FB582608FBD8EB5886039
S11309808EBD8EB580618EBD8EB5887F8EBD8EB5D1
S1130990682B6EBD0895811103C08EB5806404C0B8
S11309A0813019F48EB58F7B8EBD089589B780622E
S11309B089BF08959093C4008093C30008951F9243
S11309C00F920FB60F9211242F933F934F935F937F
S11309D06F937F938F939F93AF93BF93EF93FF9303
S11309E0E091C900F091CA00309709F00995FF9190
S11309F0EF91BF91AF919F918F917F916F915F9193
S1130A004F913F912F910F900FBE0F901F9018950B
S1130A101F920F920FB60F9211242F933F934F936F
S1130A205F936F937F938F939F93AF93BF93EF9352
S1130A30FF93E091C700F091C800309709F0099541
S1130A40FF91EF91BF91AF919F918F917F916F91A2
S1130A505F914F913F912F910F900FBE0F901F9078
S1130A6018951F920F920FB60F9211242F933F9354
S1130A704F935F936F937F938F939F93AF93BF93A2
S1130A80EF93FF93E091C500F091C600309709F011
S1130A900995FF91EF91BF91AF919F918F917F91B4
S1130AA06F915F914F913F912F910F900FBE0F90D7
S1130AB01F9018951F920F920FB60F9211242F9327
S1130AC03F934F935F936F937F938F939F93AF93D2
S1130AD0BF93EF93FF93E091C300F091C40030976C
S1130AE009F00995FF91EF91BF91AF919F918F917B
S1130AF07F916F915F914F913F912F910F900FBE16
S1130B000F901F90189583E389B95998539A549A72
S1130B1008955F9BFECF8CB10895EF92FF920F93DF
S1130B201F93CF938C010E948905F80180838A303A
S1130B3089F0C0E0F801EC0FF11D80818D3049F09F
S1130B40CF5F7801EC0EF11C0E948905F7018083C8
S1130B50F1CF1082CF911F910F91FF90EF900895E4
S1130B60DC01FB019D91992339F08191882319F0CF
S1130B709817C1F304C0089581E09081911180E039
S1130B800895EE0FFF1F0590F491E02D0994F89459
S1050B90FFCF91
S1130B92554152540042757A7A206F6E0042757A3A
S1130BA27A206F6666006C6564206F6E006C656403
S1130BB2206F66660062757A7A206F6E0062757ABB
S1130BC27A206F6666000100000000000001000048
S1130BD2000000000000000000000000000101000D
S1090BE201010101010004
S9030000FC
